{
  "_format": "hh-sol-artifact-1",
  "contractName": "MetaFight",
  "sourceName": "contracts/MetaFight.sol",
  "abi": [
    {
      "inputs": [
        {
          "internalType": "string",
          "name": "_name",
          "type": "string"
        },
        {
          "internalType": "string",
          "name": "_symbol",
          "type": "string"
        },
        {
          "internalType": "string",
          "name": "_initBaseURI",
          "type": "string"
        }
      ],
      "stateMutability": "nonpayable",
      "type": "constructor"
    },
    {
      "anonymous": false,
      "inputs": [
        {
          "indexed": true,
          "internalType": "address",
          "name": "owner",
          "type": "address"
        },
        {
          "indexed": true,
          "internalType": "address",
          "name": "approved",
          "type": "address"
        },
        {
          "indexed": true,
          "internalType": "uint256",
          "name": "tokenId",
          "type": "uint256"
        }
      ],
      "name": "Approval",
      "type": "event"
    },
    {
      "anonymous": false,
      "inputs": [
        {
          "indexed": true,
          "internalType": "address",
          "name": "owner",
          "type": "address"
        },
        {
          "indexed": true,
          "internalType": "address",
          "name": "operator",
          "type": "address"
        },
        {
          "indexed": false,
          "internalType": "bool",
          "name": "approved",
          "type": "bool"
        }
      ],
      "name": "ApprovalForAll",
      "type": "event"
    },
    {
      "anonymous": false,
      "inputs": [
        {
          "indexed": true,
          "internalType": "uint256",
          "name": "tokenId",
          "type": "uint256"
        },
        {
          "indexed": false,
          "internalType": "address",
          "name": "owner",
          "type": "address"
        },
        {
          "indexed": false,
          "internalType": "uint256",
          "name": "pending_id",
          "type": "uint256"
        }
      ],
      "name": "MintConfirmed",
      "type": "event"
    },
    {
      "anonymous": false,
      "inputs": [
        {
          "indexed": true,
          "internalType": "address",
          "name": "previousOwner",
          "type": "address"
        },
        {
          "indexed": true,
          "internalType": "address",
          "name": "newOwner",
          "type": "address"
        }
      ],
      "name": "OwnershipTransferred",
      "type": "event"
    },
    {
      "anonymous": false,
      "inputs": [
        {
          "indexed": true,
          "internalType": "address",
          "name": "from",
          "type": "address"
        },
        {
          "indexed": true,
          "internalType": "address",
          "name": "to",
          "type": "address"
        },
        {
          "indexed": true,
          "internalType": "uint256",
          "name": "tokenId",
          "type": "uint256"
        }
      ],
      "name": "Transfer",
      "type": "event"
    },
    {
      "inputs": [
        {
          "internalType": "address",
          "name": "",
          "type": "address"
        }
      ],
      "name": "addressMintedBalance",
      "outputs": [
        {
          "internalType": "uint256",
          "name": "",
          "type": "uint256"
        }
      ],
      "stateMutability": "view",
      "type": "function"
    },
    {
      "inputs": [
        {
          "internalType": "address",
          "name": "to",
          "type": "address"
        },
        {
          "internalType": "uint256",
          "name": "tokenId",
          "type": "uint256"
        }
      ],
      "name": "approve",
      "outputs": [],
      "stateMutability": "nonpayable",
      "type": "function"
    },
    {
      "inputs": [
        {
          "internalType": "address",
          "name": "owner",
          "type": "address"
        }
      ],
      "name": "balanceOf",
      "outputs": [
        {
          "internalType": "uint256",
          "name": "",
          "type": "uint256"
        }
      ],
      "stateMutability": "view",
      "type": "function"
    },
    {
      "inputs": [],
      "name": "baseExtension",
      "outputs": [
        {
          "internalType": "string",
          "name": "",
          "type": "string"
        }
      ],
      "stateMutability": "view",
      "type": "function"
    },
    {
      "inputs": [],
      "name": "baseURI",
      "outputs": [
        {
          "internalType": "string",
          "name": "",
          "type": "string"
        }
      ],
      "stateMutability": "view",
      "type": "function"
    },
    {
      "inputs": [
        {
          "internalType": "uint256",
          "name": "tokenId",
          "type": "uint256"
        }
      ],
      "name": "getApproved",
      "outputs": [
        {
          "internalType": "address",
          "name": "",
          "type": "address"
        }
      ],
      "stateMutability": "view",
      "type": "function"
    },
    {
      "inputs": [
        {
          "internalType": "address",
          "name": "owner",
          "type": "address"
        },
        {
          "internalType": "address",
          "name": "operator",
          "type": "address"
        }
      ],
      "name": "isApprovedForAll",
      "outputs": [
        {
          "internalType": "bool",
          "name": "",
          "type": "bool"
        }
      ],
      "stateMutability": "view",
      "type": "function"
    },
    {
      "inputs": [
        {
          "internalType": "uint256",
          "name": "_nftPrice",
          "type": "uint256"
        },
        {
          "internalType": "string",
          "name": "_metadataURI",
          "type": "string"
        },
        {
          "internalType": "uint256",
          "name": "_pending_id",
          "type": "uint256"
        }
      ],
      "name": "mint",
      "outputs": [],
      "stateMutability": "payable",
      "type": "function"
    },
    {
      "inputs": [],
      "name": "name",
      "outputs": [
        {
          "internalType": "string",
          "name": "",
          "type": "string"
        }
      ],
      "stateMutability": "view",
      "type": "function"
    },
    {
      "inputs": [],
      "name": "nftPerAddressLimit",
      "outputs": [
        {
          "internalType": "uint256",
          "name": "",
          "type": "uint256"
        }
      ],
      "stateMutability": "view",
      "type": "function"
    },
    {
      "inputs": [],
      "name": "onlyWhitelisted",
      "outputs": [
        {
          "internalType": "bool",
          "name": "",
          "type": "bool"
        }
      ],
      "stateMutability": "view",
      "type": "function"
    },
    {
      "inputs": [],
      "name": "owner",
      "outputs": [
        {
          "internalType": "address",
          "name": "",
          "type": "address"
        }
      ],
      "stateMutability": "view",
      "type": "function"
    },
    {
      "inputs": [
        {
          "internalType": "uint256",
          "name": "tokenId",
          "type": "uint256"
        }
      ],
      "name": "ownerOf",
      "outputs": [
        {
          "internalType": "address",
          "name": "",
          "type": "address"
        }
      ],
      "stateMutability": "view",
      "type": "function"
    },
    {
      "inputs": [
        {
          "internalType": "bool",
          "name": "_state",
          "type": "bool"
        }
      ],
      "name": "pause",
      "outputs": [],
      "stateMutability": "nonpayable",
      "type": "function"
    },
    {
      "inputs": [],
      "name": "paused",
      "outputs": [
        {
          "internalType": "bool",
          "name": "",
          "type": "bool"
        }
      ],
      "stateMutability": "view",
      "type": "function"
    },
    {
      "inputs": [],
      "name": "renounceOwnership",
      "outputs": [],
      "stateMutability": "nonpayable",
      "type": "function"
    },
    {
      "inputs": [],
      "name": "reveal",
      "outputs": [],
      "stateMutability": "nonpayable",
      "type": "function"
    },
    {
      "inputs": [],
      "name": "revealed",
      "outputs": [
        {
          "internalType": "bool",
          "name": "",
          "type": "bool"
        }
      ],
      "stateMutability": "view",
      "type": "function"
    },
    {
      "inputs": [
        {
          "internalType": "address",
          "name": "from",
          "type": "address"
        },
        {
          "internalType": "address",
          "name": "to",
          "type": "address"
        },
        {
          "internalType": "uint256",
          "name": "tokenId",
          "type": "uint256"
        }
      ],
      "name": "safeTransferFrom",
      "outputs": [],
      "stateMutability": "nonpayable",
      "type": "function"
    },
    {
      "inputs": [
        {
          "internalType": "address",
          "name": "from",
          "type": "address"
        },
        {
          "internalType": "address",
          "name": "to",
          "type": "address"
        },
        {
          "internalType": "uint256",
          "name": "tokenId",
          "type": "uint256"
        },
        {
          "internalType": "bytes",
          "name": "_data",
          "type": "bytes"
        }
      ],
      "name": "safeTransferFrom",
      "outputs": [],
      "stateMutability": "nonpayable",
      "type": "function"
    },
    {
      "inputs": [
        {
          "internalType": "address",
          "name": "operator",
          "type": "address"
        },
        {
          "internalType": "bool",
          "name": "approved",
          "type": "bool"
        }
      ],
      "name": "setApprovalForAll",
      "outputs": [],
      "stateMutability": "nonpayable",
      "type": "function"
    },
    {
      "inputs": [
        {
          "internalType": "string",
          "name": "_newBaseExtension",
          "type": "string"
        }
      ],
      "name": "setBaseExtension",
      "outputs": [],
      "stateMutability": "nonpayable",
      "type": "function"
    },
    {
      "inputs": [
        {
          "internalType": "string",
          "name": "_newBaseURI",
          "type": "string"
        }
      ],
      "name": "setBaseURI",
      "outputs": [],
      "stateMutability": "nonpayable",
      "type": "function"
    },
    {
      "inputs": [
        {
          "internalType": "uint256",
          "name": "_limit",
          "type": "uint256"
        }
      ],
      "name": "setNftPerAddressLimit",
      "outputs": [],
      "stateMutability": "nonpayable",
      "type": "function"
    },
    {
      "inputs": [
        {
          "internalType": "bytes4",
          "name": "interfaceId",
          "type": "bytes4"
        }
      ],
      "name": "supportsInterface",
      "outputs": [
        {
          "internalType": "bool",
          "name": "",
          "type": "bool"
        }
      ],
      "stateMutability": "view",
      "type": "function"
    },
    {
      "inputs": [],
      "name": "symbol",
      "outputs": [
        {
          "internalType": "string",
          "name": "",
          "type": "string"
        }
      ],
      "stateMutability": "view",
      "type": "function"
    },
    {
      "inputs": [
        {
          "internalType": "uint256",
          "name": "index",
          "type": "uint256"
        }
      ],
      "name": "tokenByIndex",
      "outputs": [
        {
          "internalType": "uint256",
          "name": "",
          "type": "uint256"
        }
      ],
      "stateMutability": "view",
      "type": "function"
    },
    {
      "inputs": [
        {
          "internalType": "address",
          "name": "owner",
          "type": "address"
        },
        {
          "internalType": "uint256",
          "name": "index",
          "type": "uint256"
        }
      ],
      "name": "tokenOfOwnerByIndex",
      "outputs": [
        {
          "internalType": "uint256",
          "name": "",
          "type": "uint256"
        }
      ],
      "stateMutability": "view",
      "type": "function"
    },
    {
      "inputs": [
        {
          "internalType": "uint256",
          "name": "tokenId",
          "type": "uint256"
        }
      ],
      "name": "tokenURI",
      "outputs": [
        {
          "internalType": "string",
          "name": "",
          "type": "string"
        }
      ],
      "stateMutability": "view",
      "type": "function"
    },
    {
      "inputs": [],
      "name": "totalSupply",
      "outputs": [
        {
          "internalType": "uint256",
          "name": "",
          "type": "uint256"
        }
      ],
      "stateMutability": "view",
      "type": "function"
    },
    {
      "inputs": [
        {
          "internalType": "address",
          "name": "from",
          "type": "address"
        },
        {
          "internalType": "address",
          "name": "to",
          "type": "address"
        },
        {
          "internalType": "uint256",
          "name": "tokenId",
          "type": "uint256"
        }
      ],
      "name": "transferFrom",
      "outputs": [],
      "stateMutability": "nonpayable",
      "type": "function"
    },
    {
      "inputs": [
        {
          "internalType": "address",
          "name": "newOwner",
          "type": "address"
        }
      ],
      "name": "transferOwnership",
      "outputs": [],
      "stateMutability": "nonpayable",
      "type": "function"
    },
    {
      "inputs": [
        {
          "internalType": "address",
          "name": "_owner",
          "type": "address"
        }
      ],
      "name": "walletOfOwner",
      "outputs": [
        {
          "internalType": "uint256[]",
          "name": "",
          "type": "uint256[]"
        }
      ],
      "stateMutability": "view",
      "type": "function"
    },
    {
      "inputs": [
        {
          "internalType": "uint256",
          "name": "",
          "type": "uint256"
        }
      ],
      "name": "whitelistedAddresses",
      "outputs": [
        {
          "internalType": "address",
          "name": "",
          "type": "address"
        }
      ],
      "stateMutability": "view",
      "type": "function"
    },
    {
      "inputs": [],
      "name": "withdraw",
      "outputs": [],
      "stateMutability": "payable",
      "type": "function"
    }
  ],
  "bytecode": "0x60806040526040518060400160405280600581526020017f2e6a736f6e000000000000000000000000000000000000000000000000000000815250600c90816200004a91906200054c565b506014600d556001600e60006101000a81548160ff0219169083151502179055506000600e60016101000a81548160ff0219169083151502179055506000600e60026101000a81548160ff021916908315150217905550348015620000ae57600080fd5b5060405162004dd138038062004dd18339818101604052810190620000d4919062000797565b82828160009081620000e791906200054c565b508060019081620000f991906200054c565b5050506200011c620001106200013660201b60201c565b6200013e60201b60201c565b6200012d816200020460201b60201c565b505050620008d3565b600033905090565b6000600a60009054906101000a900473ffffffffffffffffffffffffffffffffffffffff16905081600a60006101000a81548173ffffffffffffffffffffffffffffffffffffffff021916908373ffffffffffffffffffffffffffffffffffffffff1602179055508173ffffffffffffffffffffffffffffffffffffffff168173ffffffffffffffffffffffffffffffffffffffff167f8be0079c531659141344cd1fd0a4f28419497f9722a3daafe3b4186f6b6457e060405160405180910390a35050565b620002146200013660201b60201c565b73ffffffffffffffffffffffffffffffffffffffff166200023a620002a860201b60201c565b73ffffffffffffffffffffffffffffffffffffffff161462000293576040517f08c379a00000000000000000000000000000000000000000000000000000000081526004016200028a90620008b1565b60405180910390fd5b80600b9081620002a491906200054c565b5050565b6000600a60009054906101000a900473ffffffffffffffffffffffffffffffffffffffff16905090565b600081519050919050565b7f4e487b7100000000000000000000000000000000000000000000000000000000600052604160045260246000fd5b7f4e487b7100000000000000000000000000000000000000000000000000000000600052602260045260246000fd5b600060028204905060018216806200035457607f821691505b6020821081036200036a57620003696200030c565b5b50919050565b60008190508160005260206000209050919050565b60006020601f8301049050919050565b600082821b905092915050565b600060088302620003d47fffffffffffffffffffffffffffffffffffffffffffffffffffffffffffffffff8262000395565b620003e0868362000395565b95508019841693508086168417925050509392505050565b6000819050919050565b6000819050919050565b60006200042d620004276200042184620003f8565b62000402565b620003f8565b9050919050565b6000819050919050565b62000449836200040c565b62000461620004588262000434565b848454620003a2565b825550505050565b600090565b6200047862000469565b620004858184846200043e565b505050565b5b81811015620004ad57620004a16000826200046e565b6001810190506200048b565b5050565b601f821115620004fc57620004c68162000370565b620004d18462000385565b81016020851015620004e1578190505b620004f9620004f08562000385565b8301826200048a565b50505b505050565b600082821c905092915050565b6000620005216000198460080262000501565b1980831691505092915050565b60006200053c83836200050e565b9150826002028217905092915050565b6200055782620002d2565b67ffffffffffffffff811115620005735762000572620002dd565b5b6200057f82546200033b565b6200058c828285620004b1565b600060209050601f831160018114620005c45760008415620005af578287015190505b620005bb85826200052e565b8655506200062b565b601f198416620005d48662000370565b60005b82811015620005fe57848901518255600182019150602085019450602081019050620005d7565b868310156200061e57848901516200061a601f8916826200050e565b8355505b6001600288020188555050505b505050505050565b6000604051905090565b600080fd5b600080fd5b600080fd5b600080fd5b6000601f19601f8301169050919050565b6200066d8262000651565b810181811067ffffffffffffffff821117156200068f576200068e620002dd565b5b80604052505050565b6000620006a462000633565b9050620006b2828262000662565b919050565b600067ffffffffffffffff821115620006d557620006d4620002dd565b5b620006e08262000651565b9050602081019050919050565b60005b838110156200070d578082015181840152602081019050620006f0565b60008484015250505050565b6000620007306200072a84620006b7565b62000698565b9050828152602081018484840111156200074f576200074e6200064c565b5b6200075c848285620006ed565b509392505050565b600082601f8301126200077c576200077b62000647565b5b81516200078e84826020860162000719565b91505092915050565b600080600060608486031215620007b357620007b26200063d565b5b600084015167ffffffffffffffff811115620007d457620007d362000642565b5b620007e28682870162000764565b935050602084015167ffffffffffffffff81111562000806576200080562000642565b5b620008148682870162000764565b925050604084015167ffffffffffffffff81111562000838576200083762000642565b5b620008468682870162000764565b9150509250925092565b600082825260208201905092915050565b7f4f776e61626c653a2063616c6c6572206973206e6f7420746865206f776e6572600082015250565b60006200089960208362000850565b9150620008a68262000861565b602082019050919050565b60006020820190508181036000830152620008cc816200088a565b9050919050565b6144ee80620008e36000396000f3fe6080604052600436106102045760003560e01c80636c0360eb11610118578063b88d4fde116100a0578063c87b56dd1161006f578063c87b56dd1461074f578063d0eb26b01461078c578063da3ef23f146107b5578063e985e9c5146107de578063f2fde38b1461081b57610204565b8063b88d4fde14610693578063ba4e5c49146106bc578063ba7d2c76146106f9578063c66828621461072457610204565b806395d89b41116100e757806395d89b41146105e15780639c70b5121461060c578063a22cb46514610637578063a475b5dd14610660578063acca6b311461067757610204565b80636c0360eb1461053757806370a0823114610562578063715018a61461059f5780638da5cb5b146105b657610204565b80632f745c591161019b5780634f6ccce71161016a5780634f6ccce71461043e578063518302271461047b57806355f804b3146104a65780635c975abb146104cf5780636352211e146104fa57610204565b80632f745c59146103915780633ccfd60b146103ce57806342842e0e146103d8578063438b63001461040157610204565b8063095ea7b3116101d7578063095ea7b3146102d757806318160ddd1461030057806318cae2691461032b57806323b872dd1461036857610204565b806301ffc9a71461020957806302329a291461024657806306fdde031461026f578063081812fc1461029a575b600080fd5b34801561021557600080fd5b50610230600480360381019061022b9190612b72565b610844565b60405161023d9190612bba565b60405180910390f35b34801561025257600080fd5b5061026d60048036038101906102689190612c01565b6108be565b005b34801561027b57600080fd5b50610284610957565b6040516102919190612cbe565b60405180910390f35b3480156102a657600080fd5b506102c160048036038101906102bc9190612d16565b6109e9565b6040516102ce9190612d84565b60405180910390f35b3480156102e357600080fd5b506102fe60048036038101906102f99190612dcb565b610a6e565b005b34801561030c57600080fd5b50610315610b85565b6040516103229190612e1a565b60405180910390f35b34801561033757600080fd5b50610352600480360381019061034d9190612e35565b610b92565b60405161035f9190612e1a565b60405180910390f35b34801561037457600080fd5b5061038f600480360381019061038a9190612e62565b610baa565b005b34801561039d57600080fd5b506103b860048036038101906103b39190612dcb565b610c0a565b6040516103c59190612e1a565b60405180910390f35b6103d6610caf565b005b3480156103e457600080fd5b506103ff60048036038101906103fa9190612e62565b610dab565b005b34801561040d57600080fd5b5061042860048036038101906104239190612e35565b610dcb565b6040516104359190612f73565b60405180910390f35b34801561044a57600080fd5b5061046560048036038101906104609190612d16565b610e79565b6040516104729190612e1a565b60405180910390f35b34801561048757600080fd5b50610490610eea565b60405161049d9190612bba565b60405180910390f35b3480156104b257600080fd5b506104cd60048036038101906104c891906130ca565b610efd565b005b3480156104db57600080fd5b506104e4610f8c565b6040516104f19190612bba565b60405180910390f35b34801561050657600080fd5b50610521600480360381019061051c9190612d16565b610f9f565b60405161052e9190612d84565b60405180910390f35b34801561054357600080fd5b5061054c611050565b6040516105599190612cbe565b60405180910390f35b34801561056e57600080fd5b5061058960048036038101906105849190612e35565b6110de565b6040516105969190612e1a565b60405180910390f35b3480156105ab57600080fd5b506105b4611195565b005b3480156105c257600080fd5b506105cb61121d565b6040516105d89190612d84565b60405180910390f35b3480156105ed57600080fd5b506105f6611247565b6040516106039190612cbe565b60405180910390f35b34801561061857600080fd5b506106216112d9565b60405161062e9190612bba565b60405180910390f35b34801561064357600080fd5b5061065e60048036038101906106599190613113565b6112ec565b005b34801561066c57600080fd5b50610675611302565b005b610691600480360381019061068c91906131b3565b61139b565b005b34801561069f57600080fd5b506106ba60048036038101906106b591906132c8565b611575565b005b3480156106c857600080fd5b506106e360048036038101906106de9190612d16565b6115d7565b6040516106f09190612d84565b60405180910390f35b34801561070557600080fd5b5061070e611616565b60405161071b9190612e1a565b60405180910390f35b34801561073057600080fd5b5061073961161c565b6040516107469190612cbe565b60405180910390f35b34801561075b57600080fd5b5061077660048036038101906107719190612d16565b6116aa565b6040516107839190612cbe565b60405180910390f35b34801561079857600080fd5b506107b360048036038101906107ae9190612d16565b6117bc565b005b3480156107c157600080fd5b506107dc60048036038101906107d791906130ca565b611842565b005b3480156107ea57600080fd5b506108056004803603810190610800919061334b565b6118d1565b6040516108129190612bba565b60405180910390f35b34801561082757600080fd5b50610842600480360381019061083d9190612e35565b611965565b005b60007f780e9d63000000000000000000000000000000000000000000000000000000007bffffffffffffffffffffffffffffffffffffffffffffffffffffffff1916827bffffffffffffffffffffffffffffffffffffffffffffffffffffffff191614806108b757506108b682611a5c565b5b9050919050565b6108c6611b3e565b73ffffffffffffffffffffffffffffffffffffffff166108e461121d565b73ffffffffffffffffffffffffffffffffffffffff161461093a576040517f08c379a0000000000000000000000000000000000000000000000000000000008152600401610931906133d7565b60405180910390fd5b80600e60016101000a81548160ff02191690831515021790555050565b60606000805461096690613426565b80601f016020809104026020016040519081016040528092919081815260200182805461099290613426565b80156109df5780601f106109b4576101008083540402835291602001916109df565b820191906000526020600020905b8154815290600101906020018083116109c257829003601f168201915b5050505050905090565b60006109f482611b46565b610a33576040517f08c379a0000000000000000000000000000000000000000000000000000000008152600401610a2a906134c9565b60405180910390fd5b6004600083815260200190815260200160002060009054906101000a900473ffffffffffffffffffffffffffffffffffffffff169050919050565b6000610a7982610f9f565b90508073ffffffffffffffffffffffffffffffffffffffff168373ffffffffffffffffffffffffffffffffffffffff1603610ae9576040517f08c379a0000000000000000000000000000000000000000000000000000000008152600401610ae09061355b565b60405180910390fd5b8073ffffffffffffffffffffffffffffffffffffffff16610b08611b3e565b73ffffffffffffffffffffffffffffffffffffffff161480610b375750610b3681610b31611b3e565b6118d1565b5b610b76576040517f08c379a0000000000000000000000000000000000000000000000000000000008152600401610b6d906135ed565b60405180910390fd5b610b808383611bb2565b505050565b6000600880549050905090565b60106020528060005260406000206000915090505481565b610bbb610bb5611b3e565b82611c6b565b610bfa576040517f08c379a0000000000000000000000000000000000000000000000000000000008152600401610bf19061367f565b60405180910390fd5b610c05838383611d49565b505050565b6000610c15836110de565b8210610c56576040517f08c379a0000000000000000000000000000000000000000000000000000000008152600401610c4d90613711565b60405180910390fd5b600660008473ffffffffffffffffffffffffffffffffffffffff1673ffffffffffffffffffffffffffffffffffffffff168152602001908152602001600020600083815260200190815260200160002054905092915050565b610cb7611b3e565b73ffffffffffffffffffffffffffffffffffffffff16610cd561121d565b73ffffffffffffffffffffffffffffffffffffffff1614610d2b576040517f08c379a0000000000000000000000000000000000000000000000000000000008152600401610d22906133d7565b60405180910390fd5b6000610d3561121d565b73ffffffffffffffffffffffffffffffffffffffff1647604051610d5890613762565b60006040518083038185875af1925050503d8060008114610d95576040519150601f19603f3d011682016040523d82523d6000602084013e610d9a565b606091505b5050905080610da857600080fd5b50565b610dc683838360405180602001604052806000815250611575565b505050565b60606000610dd8836110de565b905060008167ffffffffffffffff811115610df657610df5612f9f565b5b604051908082528060200260200182016040528015610e245781602001602082028036833780820191505090505b50905060005b82811015610e6e57610e3c8582610c0a565b828281518110610e4f57610e4e613777565b5b6020026020010181815250508080610e66906137d5565b915050610e2a565b508092505050919050565b6000610e83610b85565b8210610ec4576040517f08c379a0000000000000000000000000000000000000000000000000000000008152600401610ebb9061388f565b60405180910390fd5b60088281548110610ed857610ed7613777565b5b90600052602060002001549050919050565b600e60029054906101000a900460ff1681565b610f05611b3e565b73ffffffffffffffffffffffffffffffffffffffff16610f2361121d565b73ffffffffffffffffffffffffffffffffffffffff1614610f79576040517f08c379a0000000000000000000000000000000000000000000000000000000008152600401610f70906133d7565b60405180910390fd5b80600b9081610f889190613a5b565b5050565b600e60019054906101000a900460ff1681565b6000806002600084815260200190815260200160002060009054906101000a900473ffffffffffffffffffffffffffffffffffffffff169050600073ffffffffffffffffffffffffffffffffffffffff168173ffffffffffffffffffffffffffffffffffffffff1603611047576040517f08c379a000000000000000000000000000000000000000000000000000000000815260040161103e90613b9f565b60405180910390fd5b80915050919050565b600b805461105d90613426565b80601f016020809104026020016040519081016040528092919081815260200182805461108990613426565b80156110d65780601f106110ab576101008083540402835291602001916110d6565b820191906000526020600020905b8154815290600101906020018083116110b957829003601f168201915b505050505081565b60008073ffffffffffffffffffffffffffffffffffffffff168273ffffffffffffffffffffffffffffffffffffffff160361114e576040517f08c379a000000000000000000000000000000000000000000000000000000000815260040161114590613c31565b60405180910390fd5b600360008373ffffffffffffffffffffffffffffffffffffffff1673ffffffffffffffffffffffffffffffffffffffff168152602001908152602001600020549050919050565b61119d611b3e565b73ffffffffffffffffffffffffffffffffffffffff166111bb61121d565b73ffffffffffffffffffffffffffffffffffffffff1614611211576040517f08c379a0000000000000000000000000000000000000000000000000000000008152600401611208906133d7565b60405180910390fd5b61121b6000611fa4565b565b6000600a60009054906101000a900473ffffffffffffffffffffffffffffffffffffffff16905090565b60606001805461125690613426565b80601f016020809104026020016040519081016040528092919081815260200182805461128290613426565b80156112cf5780601f106112a4576101008083540402835291602001916112cf565b820191906000526020600020905b8154815290600101906020018083116112b257829003601f168201915b5050505050905090565b600e60009054906101000a900460ff1681565b6112fe6112f7611b3e565b838361206a565b5050565b61130a611b3e565b73ffffffffffffffffffffffffffffffffffffffff1661132861121d565b73ffffffffffffffffffffffffffffffffffffffff161461137e576040517f08c379a0000000000000000000000000000000000000000000000000000000008152600401611375906133d7565b60405180910390fd5b6001600e60026101000a81548160ff021916908315150217905550565b600e60019054906101000a900460ff16156113eb576040517f08c379a00000000000000000000000000000000000000000000000000000000081526004016113e290613c9d565b60405180910390fd5b60006113f5610b85565b90506113ff61121d565b73ffffffffffffffffffffffffffffffffffffffff163373ffffffffffffffffffffffffffffffffffffffff16146114755784341015611474576040517f08c379a000000000000000000000000000000000000000000000000000000000815260040161146b90613d09565b60405180910390fd5b5b601060003373ffffffffffffffffffffffffffffffffffffffff1673ffffffffffffffffffffffffffffffffffffffff16815260200190815260200160002060008154809291906114c5906137d5565b919050555060006001826114d99190613d29565b90506114e533826121d6565b6115338186868080601f016020809104026020016040519081016040528093929190818152602001838380828437600081840152601f19601f820116905080830192505050505050506121f4565b807f96066cf974f542483b7f1030016789351b182a853281ed9b8a05e18f3645b8403385604051611565929190613d5d565b60405180910390a2505050505050565b611586611580611b3e565b83611c6b565b6115c5576040517f08c379a00000000000000000000000000000000000000000000000000000000081526004016115bc9061367f565b60405180910390fd5b6115d184848484612261565b50505050565b600f81815481106115e757600080fd5b906000526020600020016000915054906101000a900473ffffffffffffffffffffffffffffffffffffffff1681565b600d5481565b600c805461162990613426565b80601f016020809104026020016040519081016040528092919081815260200182805461165590613426565b80156116a25780601f10611677576101008083540402835291602001916116a2565b820191906000526020600020905b81548152906001019060200180831161168557829003601f168201915b505050505081565b60606116b582611b46565b6116f4576040517f08c379a00000000000000000000000000000000000000000000000000000000081526004016116eb90613df8565b60405180910390fd5b600060116000848152602001908152602001600020805461171490613426565b80601f016020809104026020016040519081016040528092919081815260200182805461174090613426565b801561178d5780601f106117625761010080835404028352916020019161178d565b820191906000526020600020905b81548152906001019060200180831161177057829003601f168201915b50505050509050806040516020016117a59190613ea0565b604051602081830303815290604052915050919050565b6117c4611b3e565b73ffffffffffffffffffffffffffffffffffffffff166117e261121d565b73ffffffffffffffffffffffffffffffffffffffff1614611838576040517f08c379a000000000000000000000000000000000000000000000000000000000815260040161182f906133d7565b60405180910390fd5b80600d8190555050565b61184a611b3e565b73ffffffffffffffffffffffffffffffffffffffff1661186861121d565b73ffffffffffffffffffffffffffffffffffffffff16146118be576040517f08c379a00000000000000000000000000000000000000000000000000000000081526004016118b5906133d7565b60405180910390fd5b80600c90816118cd9190613a5b565b5050565b6000600560008473ffffffffffffffffffffffffffffffffffffffff1673ffffffffffffffffffffffffffffffffffffffff16815260200190815260200160002060008373ffffffffffffffffffffffffffffffffffffffff1673ffffffffffffffffffffffffffffffffffffffff16815260200190815260200160002060009054906101000a900460ff16905092915050565b61196d611b3e565b73ffffffffffffffffffffffffffffffffffffffff1661198b61121d565b73ffffffffffffffffffffffffffffffffffffffff16146119e1576040517f08c379a00000000000000000000000000000000000000000000000000000000081526004016119d8906133d7565b60405180910390fd5b600073ffffffffffffffffffffffffffffffffffffffff168173ffffffffffffffffffffffffffffffffffffffff1603611a50576040517f08c379a0000000000000000000000000000000000000000000000000000000008152600401611a4790613f34565b60405180910390fd5b611a5981611fa4565b50565b60007f80ac58cd000000000000000000000000000000000000000000000000000000007bffffffffffffffffffffffffffffffffffffffffffffffffffffffff1916827bffffffffffffffffffffffffffffffffffffffffffffffffffffffff19161480611b2757507f5b5e139f000000000000000000000000000000000000000000000000000000007bffffffffffffffffffffffffffffffffffffffffffffffffffffffff1916827bffffffffffffffffffffffffffffffffffffffffffffffffffffffff1916145b80611b375750611b36826122bd565b5b9050919050565b600033905090565b60008073ffffffffffffffffffffffffffffffffffffffff166002600084815260200190815260200160002060009054906101000a900473ffffffffffffffffffffffffffffffffffffffff1673ffffffffffffffffffffffffffffffffffffffff1614159050919050565b816004600083815260200190815260200160002060006101000a81548173ffffffffffffffffffffffffffffffffffffffff021916908373ffffffffffffffffffffffffffffffffffffffff160217905550808273ffffffffffffffffffffffffffffffffffffffff16611c2583610f9f565b73ffffffffffffffffffffffffffffffffffffffff167f8c5be1e5ebec7d5bd14f71427d1e84f3dd0314c0f7b2291e5b200ac8c7c3b92560405160405180910390a45050565b6000611c7682611b46565b611cb5576040517f08c379a0000000000000000000000000000000000000000000000000000000008152600401611cac90613fc6565b60405180910390fd5b6000611cc083610f9f565b90508073ffffffffffffffffffffffffffffffffffffffff168473ffffffffffffffffffffffffffffffffffffffff161480611d2f57508373ffffffffffffffffffffffffffffffffffffffff16611d17846109e9565b73ffffffffffffffffffffffffffffffffffffffff16145b80611d405750611d3f81856118d1565b5b91505092915050565b8273ffffffffffffffffffffffffffffffffffffffff16611d6982610f9f565b73ffffffffffffffffffffffffffffffffffffffff1614611dbf576040517f08c379a0000000000000000000000000000000000000000000000000000000008152600401611db690614058565b60405180910390fd5b600073ffffffffffffffffffffffffffffffffffffffff168273ffffffffffffffffffffffffffffffffffffffff1603611e2e576040517f08c379a0000000000000000000000000000000000000000000000000000000008152600401611e25906140ea565b60405180910390fd5b611e39838383612327565b611e44600082611bb2565b6001600360008573ffffffffffffffffffffffffffffffffffffffff1673ffffffffffffffffffffffffffffffffffffffff1681526020019081526020016000206000828254611e94919061410a565b925050819055506001600360008473ffffffffffffffffffffffffffffffffffffffff1673ffffffffffffffffffffffffffffffffffffffff1681526020019081526020016000206000828254611eeb9190613d29565b92505081905550816002600083815260200190815260200160002060006101000a81548173ffffffffffffffffffffffffffffffffffffffff021916908373ffffffffffffffffffffffffffffffffffffffff160217905550808273ffffffffffffffffffffffffffffffffffffffff168473ffffffffffffffffffffffffffffffffffffffff167fddf252ad1be2c89b69c2b068fc378daa952ba7f163c4a11628f55a4df523b3ef60405160405180910390a4505050565b6000600a60009054906101000a900473ffffffffffffffffffffffffffffffffffffffff16905081600a60006101000a81548173ffffffffffffffffffffffffffffffffffffffff021916908373ffffffffffffffffffffffffffffffffffffffff1602179055508173ffffffffffffffffffffffffffffffffffffffff168173ffffffffffffffffffffffffffffffffffffffff167f8be0079c531659141344cd1fd0a4f28419497f9722a3daafe3b4186f6b6457e060405160405180910390a35050565b8173ffffffffffffffffffffffffffffffffffffffff168373ffffffffffffffffffffffffffffffffffffffff16036120d8576040517f08c379a00000000000000000000000000000000000000000000000000000000081526004016120cf9061418a565b60405180910390fd5b80600560008573ffffffffffffffffffffffffffffffffffffffff1673ffffffffffffffffffffffffffffffffffffffff16815260200190815260200160002060008473ffffffffffffffffffffffffffffffffffffffff1673ffffffffffffffffffffffffffffffffffffffff16815260200190815260200160002060006101000a81548160ff0219169083151502179055508173ffffffffffffffffffffffffffffffffffffffff168373ffffffffffffffffffffffffffffffffffffffff167f17307eab39ab6107e8899845ad3d59bd9653f200f220920489ca2b5937696c31836040516121c99190612bba565b60405180910390a3505050565b6121f0828260405180602001604052806000815250612439565b5050565b6121fd82611b46565b61223c576040517f08c379a00000000000000000000000000000000000000000000000000000000081526004016122339061421c565b60405180910390fd5b8060116000848152602001908152602001600020908161225c9190613a5b565b505050565b61226c848484611d49565b61227884848484612494565b6122b7576040517f08c379a00000000000000000000000000000000000000000000000000000000081526004016122ae906142ae565b60405180910390fd5b50505050565b60007f01ffc9a7000000000000000000000000000000000000000000000000000000007bffffffffffffffffffffffffffffffffffffffffffffffffffffffff1916827bffffffffffffffffffffffffffffffffffffffffffffffffffffffff1916149050919050565b61233283838361261b565b600073ffffffffffffffffffffffffffffffffffffffff168373ffffffffffffffffffffffffffffffffffffffff16036123745761236f81612620565b6123b3565b8173ffffffffffffffffffffffffffffffffffffffff168373ffffffffffffffffffffffffffffffffffffffff16146123b2576123b18382612669565b5b5b600073ffffffffffffffffffffffffffffffffffffffff168273ffffffffffffffffffffffffffffffffffffffff16036123f5576123f0816127d6565b612434565b8273ffffffffffffffffffffffffffffffffffffffff168273ffffffffffffffffffffffffffffffffffffffff16146124335761243282826128a7565b5b5b505050565b6124438383612926565b6124506000848484612494565b61248f576040517f08c379a0000000000000000000000000000000000000000000000000000000008152600401612486906142ae565b60405180910390fd5b505050565b60006124b58473ffffffffffffffffffffffffffffffffffffffff16612af3565b1561260e578373ffffffffffffffffffffffffffffffffffffffff1663150b7a026124de611b3e565b8786866040518563ffffffff1660e01b81526004016125009493929190614323565b6020604051808303816000875af192505050801561253c57506040513d601f19601f820116820180604052508101906125399190614384565b60015b6125be573d806000811461256c576040519150601f19603f3d011682016040523d82523d6000602084013e612571565b606091505b5060008151036125b6576040517f08c379a00000000000000000000000000000000000000000000000000000000081526004016125ad906142ae565b60405180910390fd5b805181602001fd5b63150b7a0260e01b7bffffffffffffffffffffffffffffffffffffffffffffffffffffffff1916817bffffffffffffffffffffffffffffffffffffffffffffffffffffffff191614915050612613565b600190505b949350505050565b505050565b6008805490506009600083815260200190815260200160002081905550600881908060018154018082558091505060019003906000526020600020016000909190919091505550565b60006001612676846110de565b612680919061410a565b9050600060076000848152602001908152602001600020549050818114612765576000600660008673ffffffffffffffffffffffffffffffffffffffff1673ffffffffffffffffffffffffffffffffffffffff168152602001908152602001600020600084815260200190815260200160002054905080600660008773ffffffffffffffffffffffffffffffffffffffff1673ffffffffffffffffffffffffffffffffffffffff168152602001908152602001600020600084815260200190815260200160002081905550816007600083815260200190815260200160002081905550505b6007600084815260200190815260200160002060009055600660008573ffffffffffffffffffffffffffffffffffffffff1673ffffffffffffffffffffffffffffffffffffffff16815260200190815260200160002060008381526020019081526020016000206000905550505050565b600060016008805490506127ea919061410a565b905060006009600084815260200190815260200160002054905060006008838154811061281a57612819613777565b5b90600052602060002001549050806008838154811061283c5761283b613777565b5b90600052602060002001819055508160096000838152602001908152602001600020819055506009600085815260200190815260200160002060009055600880548061288b5761288a6143b1565b5b6001900381819060005260206000200160009055905550505050565b60006128b2836110de565b905081600660008573ffffffffffffffffffffffffffffffffffffffff1673ffffffffffffffffffffffffffffffffffffffff168152602001908152602001600020600083815260200190815260200160002081905550806007600084815260200190815260200160002081905550505050565b600073ffffffffffffffffffffffffffffffffffffffff168273ffffffffffffffffffffffffffffffffffffffff1603612995576040517f08c379a000000000000000000000000000000000000000000000000000000000815260040161298c9061442c565b60405180910390fd5b61299e81611b46565b156129de576040517f08c379a00000000000000000000000000000000000000000000000000000000081526004016129d590614498565b60405180910390fd5b6129ea60008383612327565b6001600360008473ffffffffffffffffffffffffffffffffffffffff1673ffffffffffffffffffffffffffffffffffffffff1681526020019081526020016000206000828254612a3a9190613d29565b92505081905550816002600083815260200190815260200160002060006101000a81548173ffffffffffffffffffffffffffffffffffffffff021916908373ffffffffffffffffffffffffffffffffffffffff160217905550808273ffffffffffffffffffffffffffffffffffffffff16600073ffffffffffffffffffffffffffffffffffffffff167fddf252ad1be2c89b69c2b068fc378daa952ba7f163c4a11628f55a4df523b3ef60405160405180910390a45050565b600080823b905060008111915050919050565b6000604051905090565b600080fd5b600080fd5b60007fffffffff0000000000000000000000000000000000000000000000000000000082169050919050565b612b4f81612b1a565b8114612b5a57600080fd5b50565b600081359050612b6c81612b46565b92915050565b600060208284031215612b8857612b87612b10565b5b6000612b9684828501612b5d565b91505092915050565b60008115159050919050565b612bb481612b9f565b82525050565b6000602082019050612bcf6000830184612bab565b92915050565b612bde81612b9f565b8114612be957600080fd5b50565b600081359050612bfb81612bd5565b92915050565b600060208284031215612c1757612c16612b10565b5b6000612c2584828501612bec565b91505092915050565b600081519050919050565b600082825260208201905092915050565b60005b83811015612c68578082015181840152602081019050612c4d565b60008484015250505050565b6000601f19601f8301169050919050565b6000612c9082612c2e565b612c9a8185612c39565b9350612caa818560208601612c4a565b612cb381612c74565b840191505092915050565b60006020820190508181036000830152612cd88184612c85565b905092915050565b6000819050919050565b612cf381612ce0565b8114612cfe57600080fd5b50565b600081359050612d1081612cea565b92915050565b600060208284031215612d2c57612d2b612b10565b5b6000612d3a84828501612d01565b91505092915050565b600073ffffffffffffffffffffffffffffffffffffffff82169050919050565b6000612d6e82612d43565b9050919050565b612d7e81612d63565b82525050565b6000602082019050612d996000830184612d75565b92915050565b612da881612d63565b8114612db357600080fd5b50565b600081359050612dc581612d9f565b92915050565b60008060408385031215612de257612de1612b10565b5b6000612df085828601612db6565b9250506020612e0185828601612d01565b9150509250929050565b612e1481612ce0565b82525050565b6000602082019050612e2f6000830184612e0b565b92915050565b600060208284031215612e4b57612e4a612b10565b5b6000612e5984828501612db6565b91505092915050565b600080600060608486031215612e7b57612e7a612b10565b5b6000612e8986828701612db6565b9350506020612e9a86828701612db6565b9250506040612eab86828701612d01565b9150509250925092565b600081519050919050565b600082825260208201905092915050565b6000819050602082019050919050565b612eea81612ce0565b82525050565b6000612efc8383612ee1565b60208301905092915050565b6000602082019050919050565b6000612f2082612eb5565b612f2a8185612ec0565b9350612f3583612ed1565b8060005b83811015612f66578151612f4d8882612ef0565b9750612f5883612f08565b925050600181019050612f39565b5085935050505092915050565b60006020820190508181036000830152612f8d8184612f15565b905092915050565b600080fd5b600080fd5b7f4e487b7100000000000000000000000000000000000000000000000000000000600052604160045260246000fd5b612fd782612c74565b810181811067ffffffffffffffff82111715612ff657612ff5612f9f565b5b80604052505050565b6000613009612b06565b90506130158282612fce565b919050565b600067ffffffffffffffff82111561303557613034612f9f565b5b61303e82612c74565b9050602081019050919050565b82818337600083830152505050565b600061306d6130688461301a565b612fff565b90508281526020810184848401111561308957613088612f9a565b5b61309484828561304b565b509392505050565b600082601f8301126130b1576130b0612f95565b5b81356130c184826020860161305a565b91505092915050565b6000602082840312156130e0576130df612b10565b5b600082013567ffffffffffffffff8111156130fe576130fd612b15565b5b61310a8482850161309c565b91505092915050565b6000806040838503121561312a57613129612b10565b5b600061313885828601612db6565b925050602061314985828601612bec565b9150509250929050565b600080fd5b600080fd5b60008083601f84011261317357613172612f95565b5b8235905067ffffffffffffffff8111156131905761318f613153565b5b6020830191508360018202830111156131ac576131ab613158565b5b9250929050565b600080600080606085870312156131cd576131cc612b10565b5b60006131db87828801612d01565b945050602085013567ffffffffffffffff8111156131fc576131fb612b15565b5b6132088782880161315d565b9350935050604061321b87828801612d01565b91505092959194509250565b600067ffffffffffffffff82111561324257613241612f9f565b5b61324b82612c74565b9050602081019050919050565b600061326b61326684613227565b612fff565b90508281526020810184848401111561328757613286612f9a565b5b61329284828561304b565b509392505050565b600082601f8301126132af576132ae612f95565b5b81356132bf848260208601613258565b91505092915050565b600080600080608085870312156132e2576132e1612b10565b5b60006132f087828801612db6565b945050602061330187828801612db6565b935050604061331287828801612d01565b925050606085013567ffffffffffffffff81111561333357613332612b15565b5b61333f8782880161329a565b91505092959194509250565b6000806040838503121561336257613361612b10565b5b600061337085828601612db6565b925050602061338185828601612db6565b9150509250929050565b7f4f776e61626c653a2063616c6c6572206973206e6f7420746865206f776e6572600082015250565b60006133c1602083612c39565b91506133cc8261338b565b602082019050919050565b600060208201905081810360008301526133f0816133b4565b9050919050565b7f4e487b7100000000000000000000000000000000000000000000000000000000600052602260045260246000fd5b6000600282049050600182168061343e57607f821691505b602082108103613451576134506133f7565b5b50919050565b7f4552433732313a20617070726f76656420717565727920666f72206e6f6e657860008201527f697374656e7420746f6b656e0000000000000000000000000000000000000000602082015250565b60006134b3602c83612c39565b91506134be82613457565b604082019050919050565b600060208201905081810360008301526134e2816134a6565b9050919050565b7f4552433732313a20617070726f76616c20746f2063757272656e74206f776e6560008201527f7200000000000000000000000000000000000000000000000000000000000000602082015250565b6000613545602183612c39565b9150613550826134e9565b604082019050919050565b6000602082019050818103600083015261357481613538565b9050919050565b7f4552433732313a20617070726f76652063616c6c6572206973206e6f74206f7760008201527f6e6572206e6f7220617070726f76656420666f7220616c6c0000000000000000602082015250565b60006135d7603883612c39565b91506135e28261357b565b604082019050919050565b60006020820190508181036000830152613606816135ca565b9050919050565b7f4552433732313a207472616e736665722063616c6c6572206973206e6f74206f60008201527f776e6572206e6f7220617070726f766564000000000000000000000000000000602082015250565b6000613669603183612c39565b91506136748261360d565b604082019050919050565b600060208201905081810360008301526136988161365c565b9050919050565b7f455243373231456e756d657261626c653a206f776e657220696e646578206f7560008201527f74206f6620626f756e6473000000000000000000000000000000000000000000602082015250565b60006136fb602b83612c39565b91506137068261369f565b604082019050919050565b6000602082019050818103600083015261372a816136ee565b9050919050565b600081905092915050565b50565b600061374c600083613731565b91506137578261373c565b600082019050919050565b600061376d8261373f565b9150819050919050565b7f4e487b7100000000000000000000000000000000000000000000000000000000600052603260045260246000fd5b7f4e487b7100000000000000000000000000000000000000000000000000000000600052601160045260246000fd5b60006137e082612ce0565b91507fffffffffffffffffffffffffffffffffffffffffffffffffffffffffffffffff8203613812576138116137a6565b5b600182019050919050565b7f455243373231456e756d657261626c653a20676c6f62616c20696e646578206f60008201527f7574206f6620626f756e64730000000000000000000000000000000000000000602082015250565b6000613879602c83612c39565b91506138848261381d565b604082019050919050565b600060208201905081810360008301526138a88161386c565b9050919050565b60008190508160005260206000209050919050565b60006020601f8301049050919050565b600082821b905092915050565b6000600883026139117fffffffffffffffffffffffffffffffffffffffffffffffffffffffffffffffff826138d4565b61391b86836138d4565b95508019841693508086168417925050509392505050565b6000819050919050565b600061395861395361394e84612ce0565b613933565b612ce0565b9050919050565b6000819050919050565b6139728361393d565b61398661397e8261395f565b8484546138e1565b825550505050565b600090565b61399b61398e565b6139a6818484613969565b505050565b5b818110156139ca576139bf600082613993565b6001810190506139ac565b5050565b601f821115613a0f576139e0816138af565b6139e9846138c4565b810160208510156139f8578190505b613a0c613a04856138c4565b8301826139ab565b50505b505050565b600082821c905092915050565b6000613a3260001984600802613a14565b1980831691505092915050565b6000613a4b8383613a21565b9150826002028217905092915050565b613a6482612c2e565b67ffffffffffffffff811115613a7d57613a7c612f9f565b5b613a878254613426565b613a928282856139ce565b600060209050601f831160018114613ac55760008415613ab3578287015190505b613abd8582613a3f565b865550613b25565b601f198416613ad3866138af565b60005b82811015613afb57848901518255600182019150602085019450602081019050613ad6565b86831015613b185784890151613b14601f891682613a21565b8355505b6001600288020188555050505b505050505050565b7f4552433732313a206f776e657220717565727920666f72206e6f6e657869737460008201527f656e7420746f6b656e0000000000000000000000000000000000000000000000602082015250565b6000613b89602983612c39565b9150613b9482613b2d565b604082019050919050565b60006020820190508181036000830152613bb881613b7c565b9050919050565b7f4552433732313a2062616c616e636520717565727920666f7220746865207a6560008201527f726f206164647265737300000000000000000000000000000000000000000000602082015250565b6000613c1b602a83612c39565b9150613c2682613bbf565b604082019050919050565b60006020820190508181036000830152613c4a81613c0e565b9050919050565b7f74686520636f6e74726163742069732070617573656400000000000000000000600082015250565b6000613c87601683612c39565b9150613c9282613c51565b602082019050919050565b60006020820190508181036000830152613cb681613c7a565b9050919050565b7f696e73756666696369656e742066756e64730000000000000000000000000000600082015250565b6000613cf3601283612c39565b9150613cfe82613cbd565b602082019050919050565b60006020820190508181036000830152613d2281613ce6565b9050919050565b6000613d3482612ce0565b9150613d3f83612ce0565b9250828201905080821115613d5757613d566137a6565b5b92915050565b6000604082019050613d726000830185612d75565b613d7f6020830184612e0b565b9392505050565b7f4552433732314d657461646174613a2055524920717565727920666f72206e6f60008201527f6e6578697374656e7420746f6b656e0000000000000000000000000000000000602082015250565b6000613de2602f83612c39565b9150613ded82613d86565b604082019050919050565b60006020820190508181036000830152613e1181613dd5565b9050919050565b600081905092915050565b7f68747470733a2f2f697066732e696f2f697066732f0000000000000000000000600082015250565b6000613e59601583613e18565b9150613e6482613e23565b601582019050919050565b6000613e7a82612c2e565b613e848185613e18565b9350613e94818560208601612c4a565b80840191505092915050565b6000613eab82613e4c565b9150613eb78284613e6f565b915081905092915050565b7f4f776e61626c653a206e6577206f776e657220697320746865207a65726f206160008201527f6464726573730000000000000000000000000000000000000000000000000000602082015250565b6000613f1e602683612c39565b9150613f2982613ec2565b604082019050919050565b60006020820190508181036000830152613f4d81613f11565b9050919050565b7f4552433732313a206f70657261746f7220717565727920666f72206e6f6e657860008201527f697374656e7420746f6b656e0000000000000000000000000000000000000000602082015250565b6000613fb0602c83612c39565b9150613fbb82613f54565b604082019050919050565b60006020820190508181036000830152613fdf81613fa3565b9050919050565b7f4552433732313a207472616e73666572206f6620746f6b656e2074686174206960008201527f73206e6f74206f776e0000000000000000000000000000000000000000000000602082015250565b6000614042602983612c39565b915061404d82613fe6565b604082019050919050565b6000602082019050818103600083015261407181614035565b9050919050565b7f4552433732313a207472616e7366657220746f20746865207a65726f2061646460008201527f7265737300000000000000000000000000000000000000000000000000000000602082015250565b60006140d4602483612c39565b91506140df82614078565b604082019050919050565b60006020820190508181036000830152614103816140c7565b9050919050565b600061411582612ce0565b915061412083612ce0565b9250828203905081811115614138576141376137a6565b5b92915050565b7f4552433732313a20617070726f766520746f2063616c6c657200000000000000600082015250565b6000614174601983612c39565b915061417f8261413e565b602082019050919050565b600060208201905081810360008301526141a381614167565b9050919050565b7f4552433732314d657461646174613a2055524920736574206f66206e6f6e657860008201527f697374656e7420746f6b656e0000000000000000000000000000000000000000602082015250565b6000614206602c83612c39565b9150614211826141aa565b604082019050919050565b60006020820190508181036000830152614235816141f9565b9050919050565b7f4552433732313a207472616e7366657220746f206e6f6e20455243373231526560008201527f63656976657220696d706c656d656e7465720000000000000000000000000000602082015250565b6000614298603283612c39565b91506142a38261423c565b604082019050919050565b600060208201905081810360008301526142c78161428b565b9050919050565b600081519050919050565b600082825260208201905092915050565b60006142f5826142ce565b6142ff81856142d9565b935061430f818560208601612c4a565b61431881612c74565b840191505092915050565b60006080820190506143386000830187612d75565b6143456020830186612d75565b6143526040830185612e0b565b818103606083015261436481846142ea565b905095945050505050565b60008151905061437e81612b46565b92915050565b60006020828403121561439a57614399612b10565b5b60006143a88482850161436f565b91505092915050565b7f4e487b7100000000000000000000000000000000000000000000000000000000600052603160045260246000fd5b7f4552433732313a206d696e7420746f20746865207a65726f2061646472657373600082015250565b6000614416602083612c39565b9150614421826143e0565b602082019050919050565b6000602082019050818103600083015261444581614409565b9050919050565b7f4552433732313a20746f6b656e20616c7265616479206d696e74656400000000600082015250565b6000614482601c83612c39565b915061448d8261444c565b602082019050919050565b600060208201905081810360008301526144b181614475565b905091905056fea2646970667358221220c7064d766c9c21c031a9ceb77229d261927e02deafbe2ebb0513be1a9d198e4764736f6c63430008140033",
  "linkReferences": {},
  "deployedLinkReferences": {}
}